{
  "contractName": "DiagnosticRegistration",
  "abi": [
    {
      "anonymous": false,
      "inputs": [
        {
          "indexed": false,
          "internalType": "string",
          "name": "hhNumber",
          "type": "string"
        },
        {
          "indexed": false,
          "internalType": "string",
          "name": "diagnosticName",
          "type": "string"
        },
        {
          "indexed": false,
          "internalType": "address",
          "name": "walletAddress",
          "type": "address"
        }
      ],
      "name": "DiagnosticRegistered",
      "type": "event"
    },
    {
      "inputs": [
        {
          "internalType": "string",
          "name": "_diagnosticName",
          "type": "string"
        },
        {
          "internalType": "string",
          "name": "_hospitalName",
          "type": "string"
        },
        {
          "internalType": "string",
          "name": "_diagnosticLocation",
          "type": "string"
        },
        {
          "internalType": "string",
          "name": "_email",
          "type": "string"
        },
        {
          "internalType": "string",
          "name": "_hhNumber",
          "type": "string"
        },
        {
          "internalType": "string",
          "name": "_password",
          "type": "string"
        }
      ],
      "name": "registerDiagnostic",
      "outputs": [],
      "stateMutability": "nonpayable",
      "type": "function"
    },
    {
      "inputs": [
        {
          "internalType": "string",
          "name": "_hhNumber",
          "type": "string"
        }
      ],
      "name": "isRegisteredDiagnostic",
      "outputs": [
        {
          "internalType": "bool",
          "name": "",
          "type": "bool"
        }
      ],
      "stateMutability": "view",
      "type": "function",
      "constant": true
    },
    {
      "inputs": [
        {
          "internalType": "string",
          "name": "_hhNumber",
          "type": "string"
        }
      ],
      "name": "getDiagnosticDetails",
      "outputs": [
        {
          "internalType": "address",
          "name": "_walletAddress",
          "type": "address"
        },
        {
          "internalType": "string",
          "name": "_diagnosticName",
          "type": "string"
        },
        {
          "internalType": "string",
          "name": "_hospitalName",
          "type": "string"
        },
        {
          "internalType": "string",
          "name": "_diagnosticLocation",
          "type": "string"
        },
        {
          "internalType": "string",
          "name": "_email",
          "type": "string"
        }
      ],
      "stateMutability": "view",
      "type": "function",
      "constant": true
    },
    {
      "inputs": [
        {
          "internalType": "string",
          "name": "_hhNumber",
          "type": "string"
        },
        {
          "internalType": "string",
          "name": "_password",
          "type": "string"
        }
      ],
      "name": "validatePassword",
      "outputs": [
        {
          "internalType": "bool",
          "name": "",
          "type": "bool"
        }
      ],
      "stateMutability": "view",
      "type": "function",
      "constant": true
    }
  ],
  "bytecode": "0x6080806040523461001657610f51908161001c8239f35b600080fdfe6080604052600436101561001257600080fd5b60003560e01c80631462b5a8146103a557806325b4c9c71461023d5780637babdb26146100b75763cf9ff0221461004857600080fd5b346100b25760203660031901126100b2576004356001600160401b0381116100b25761007a6020913690600401610d51565b8161008e6040519283815193849201610da7565b600090820190815281900382019020546040516001600160a01b0390911615158152f35b600080fd5b346100b25760403660031901126100b2576001600160401b036004358181116100b2576100e8903690600401610d51565b906024359081116100b257610101903690600401610d51565b9060405191600682519161014060209586860194610120818388610da7565b600090820190815281900387019020546001600160a01b03161515610e29565b60405161016986828161015c8183019687815193849201610da7565b8101038084520182610d30565b5190209261017f60405193849251928391610da7565b8201918481600194858152030190200190836040518092828201946000918154916101a983610def565b9282811690811561021d57506001146101df575b5050506101d3925003601f198101835282610d30565b51902014604051908152f35b6000908152858120929350915b83831061020757505050916101d392820101869288806101bd565b80548784018701528694509185019181016101ec565b925050506101d394925060ff1916865280151502820101869288806101bd565b346100b2576020806003193601126100b2576004356001600160401b0381116100b25761026e903690600401610d51565b6103a16102be83604051938051906102ad8382019261028e818986610da7565b870160008152878560018060a01b03998a930301902054161515610e29565b604051938492839251928391610da7565b8101600181520301902091610393604051936102d985610d15565b8281541685526103856102ee60018301610e75565b9587810196875261037761030460028501610e75565b956040830196875261031860038601610e75565b9260608101938452610350600661033160048901610e75565b976080840198895261034560058201610e75565b60a085015201610e75565b60c0820152511697519551915193519560a06040519a8b9a8b528a015260a0890190610dca565b908782036040890152610dca565b908582036060870152610dca565b908382036080850152610dca565b0390f35b346100b25760c03660031901126100b2576004356001600160401b0381116100b2576103d5903690600401610d51565b6024356001600160401b0381116100b2576103f4903690600401610d51565b6044356001600160401b0381116100b257610413903690600401610d51565b916064356001600160401b0381116100b257610433903690600401610d51565b926084356001600160401b0381116100b257610453903690600401610d51565b9260a4356001600160401b0381116100b257610473903690600401610d51565b604051958551610487818960208a01610da7565b87016000815287602060018060a01b03998a93030190205416610cd057604051936104b185610d15565b33855260208501938685526040860152606085015260808401528460a084015260c083015260405160208186516104eb8183858b01610da7565b81016001815203019020948251166bffffffffffffffffffffffff60a01b865416178555518051906001600160401b0382116108b55781906105306001880154610def565b601f8111610c7d575b50602090601f8311600114610c0b57600092610c00575b50508160011b916000199060031b1c19161760018501555b60408101518051906001600160401b0382116108b557819061058d6002880154610def565b601f8111610bad575b50602090601f8311600114610b3b57600092610b30575b50508160011b916000199060031b1c19161760028501555b60608101518051906001600160401b0382116108b55781906105ea6003880154610def565b601f8111610add575b50602090601f8311600114610a6b57600092610a60575b50508160011b916000199060031b1c19161760038501555b60808101518051906001600160401b0382116108b55781906106476004880154610def565b601f8111610a0d575b50602090601f831160011461099b57600092610990575b50508160011b916000199060031b1c19161760048501555b60a08101518051906001600160401b0382116108b5576106a26005870154610def565b601f8111610949575b50602090601f83116001146108d65760c0939291600091836108cb575b50508160011b916000199060031b1c19161760058601555b01519283516001600160401b0381116108b5576107006006830154610def565b601f811161086a575b506020601f82116001146107d357916006826107af9695936107bd957f018b729007b12778ed503e400556113a91191a1cd9f17a22387db8e25fa67d55996000926107c8575b50508160011b916000199060031b1c1916179101555b604051602081855161077a8183858a01610da7565b81016000815203019020336bffffffffffffffffffffffff60a01b825416179055604051938493606085526060850190610dca565b908382036020850152610dca565b3360408301520390a1005b01519050898061074f565b601f198216956006840160005260206000209660005b8181106108525750837f018b729007b12778ed503e400556113a91191a1cd9f17a22387db8e25fa67d55986107bd96946006946107af9a999760019510610839575b505050811b01910155610765565b015160001960f88460031b161c1916905589808061082b565b838301518955600190980197602093840193016107e9565b600683016000526020600020601f830160051c810191602084106108ab575b601f0160051c01905b81811061089f5750610709565b60008155600101610892565b9091508190610889565b634e487b7160e01b600052604160045260246000fd5b0151905087806106c8565b906005870160005260206000209160005b601f1985168110610931575091839160019360c09695601f19811610610918575b505050811b0160058601556106e0565b015160001960f88460031b161c19169055878080610908565b919260206001819286850151815501940192016108e7565b600587016000526020600020601f840160051c810160208510610989575b601f830160051c8201811061097d5750506106ab565b60008155600101610967565b5080610967565b015190508680610667565b9250600487016000526020600020906000935b601f19841685106109f2576001945083601f198116106109d9575b505050811b01600485015561067f565b015160001960f88460031b161c191690558680806109c9565b818101518355602094850194600190930192909101906109ae565b909150600487016000526020600020601f840160051c810160208510610a59575b90849392915b601f830160051c82018110610a4a575050610650565b60008155859450600101610a34565b5080610a2e565b01519050868061060a565b9250600387016000526020600020906000935b601f1984168510610ac2576001945083601f19811610610aa9575b505050811b016003850155610622565b015160001960f88460031b161c19169055868080610a99565b81810151835560209485019460019093019290910190610a7e565b909150600387016000526020600020601f840160051c810160208510610b29575b90849392915b601f830160051c82018110610b1a5750506105f3565b60008155859450600101610b04565b5080610afe565b0151905086806105ad565b9250600287016000526020600020906000935b601f1984168510610b92576001945083601f19811610610b79575b505050811b0160028501556105c5565b015160001960f88460031b161c19169055868080610b69565b81810151835560209485019460019093019290910190610b4e565b909150600287016000526020600020601f840160051c810160208510610bf9575b90849392915b601f830160051c82018110610bea575050610596565b60008155859450600101610bd4565b5080610bce565b015190508680610550565b9250600187016000526020600020906000935b601f1984168510610c62576001945083601f19811610610c49575b505050811b016001850155610568565b015160001960f88460031b161c19169055868080610c39565b81810151835560209485019460019093019290910190610c1e565b909150600187016000526020600020601f840160051c810160208510610cc9575b90849392915b601f830160051c82018110610cba575050610539565b60008155859450600101610ca4565b5080610c9e565b60405162461bcd60e51b815260206004820152601d60248201527f446961676e6f7374696320616c726561647920726567697374657265640000006044820152606490fd5b60e081019081106001600160401b038211176108b557604052565b90601f801991011681019081106001600160401b038211176108b557604052565b81601f820112156100b2578035906001600160401b0382116108b55760405192610d85601f8401601f191660200185610d30565b828452602083830101116100b257816000926020809301838601378301015290565b60005b838110610dba5750506000910152565b8181015183820152602001610daa565b90602091610de381518092818552858086019101610da7565b601f01601f1916010190565b90600182811c92168015610e1f575b6020831014610e0957565b634e487b7160e01b600052602260045260246000fd5b91607f1691610dfe565b15610e3057565b60405162461bcd60e51b815260206004820152601960248201527f446961676e6f73746963206e6f742072656769737465726564000000000000006044820152606490fd5b9060405191826000825492610e8984610def565b908184526001948581169081600014610ef85750600114610eb5575b5050610eb392500383610d30565b565b9093915060005260209081600020936000915b818310610ee0575050610eb393508201013880610ea5565b85548884018501529485019487945091830191610ec8565b915050610eb394506020925060ff191682840152151560051b8201013880610ea556fea2646970667358221220ad5900f0bd186d9faa76989602827120299600be17f0c2b7138ac02c33df189a64736f6c63430008130033",
  "immutableReferences": {},
  "source": "// SPDX-License-Identifier: MIT\r\npragma solidity ^0.8.19;\r\n\r\ncontract DiagnosticRegistration {\r\n    struct Diagnostic {\r\n        address walletAddress;\r\n        string diagnosticName;\r\n        string hospitalName;\r\n        string diagnosticLocation;\r\n        string email;\r\n        string hhNumber;\r\n        string password;\r\n    }\r\n\r\n    mapping(string => address) private diagnosticAddresses;\r\n    mapping(string => Diagnostic) private diagnostics;\r\n\r\n    event DiagnosticRegistered(string hhNumber, string diagnosticName, address walletAddress);\r\n\r\n    function registerDiagnostic(\r\n        string memory _diagnosticName,\r\n        string memory _hospitalName,\r\n        string memory _diagnosticLocation,\r\n        string memory _email,\r\n        string memory _hhNumber,\r\n        string memory _password\r\n    ) external {\r\n        require(diagnosticAddresses[_hhNumber] == address(0), \"Diagnostic already registered\");\r\n\r\n        Diagnostic memory newDiagnostic = Diagnostic({\r\n            walletAddress: msg.sender,\r\n            diagnosticName: _diagnosticName,\r\n            hospitalName: _hospitalName,\r\n            diagnosticLocation: _diagnosticLocation,\r\n            email: _email,\r\n            hhNumber: _hhNumber,\r\n            password: _password\r\n        });\r\n\r\n        diagnostics[_hhNumber] = newDiagnostic;\r\n        diagnosticAddresses[_hhNumber] = msg.sender;\r\n        emit DiagnosticRegistered(_hhNumber, _diagnosticName, msg.sender);\r\n    }\r\n\r\n    function isRegisteredDiagnostic(string memory _hhNumber) external view returns (bool) {\r\n        return diagnosticAddresses[_hhNumber] != address(0);\r\n    }\r\n\r\n    function getDiagnosticDetails(string memory _hhNumber) external view returns (\r\n        address _walletAddress,\r\n        string memory _diagnosticName,\r\n        string memory _hospitalName,\r\n        string memory _diagnosticLocation,\r\n        string memory _email\r\n    ) {\r\n        require(diagnosticAddresses[_hhNumber] != address(0), \"Diagnostic not registered\");\r\n        Diagnostic memory diagnostic = diagnostics[_hhNumber];\r\n        return (\r\n            diagnostic.walletAddress,\r\n            diagnostic.diagnosticName,\r\n            diagnostic.hospitalName,\r\n            diagnostic.diagnosticLocation,\r\n            diagnostic.email\r\n        );\r\n    }\r\n\r\n    function validatePassword(string memory _hhNumber, string memory _password) external view returns (bool) {\r\n        require(diagnosticAddresses[_hhNumber] != address(0), \"Diagnostic not registered\");\r\n        return keccak256(abi.encodePacked(_password)) == keccak256(abi.encodePacked(diagnostics[_hhNumber].password));\r\n    }\r\n}",
  "sourcePath": "D:\\Secure-Electronic-Health-Records-SAP\\src\\contracts\\DiagnosticRegistration.sol",
  "compiler": {
    "name": "solc",
    "version": "0.8.19+commit.7dd6d404.Emscripten.clang"
  },
  "schemaVersion": "3.4.16",
  "updatedAt": "2024-12-04T13:03:51.010Z",
  "networkType": "ethereum",
  "devdoc": {
    "kind": "dev",
    "methods": {},
    "version": 1
  },
  "userdoc": {
    "kind": "user",
    "methods": {},
    "version": 1
  }
}