{
  "contractName": "DoctorRegistration",
  "abi": [
    {
      "anonymous": false,
      "inputs": [
        {
          "indexed": false,
          "internalType": "string",
          "name": "hhNumber",
          "type": "string"
        },
        {
          "indexed": false,
          "internalType": "string",
          "name": "doctorName",
          "type": "string"
        },
        {
          "indexed": false,
          "internalType": "address",
          "name": "walletAddress",
          "type": "address"
        }
      ],
      "name": "DoctorRegistered",
      "type": "event"
    },
    {
      "inputs": [
        {
          "internalType": "string",
          "name": "",
          "type": "string"
        },
        {
          "internalType": "string",
          "name": "",
          "type": "string"
        }
      ],
      "name": "doctorPermissions",
      "outputs": [
        {
          "internalType": "bool",
          "name": "",
          "type": "bool"
        }
      ],
      "stateMutability": "view",
      "type": "function",
      "constant": true
    },
    {
      "inputs": [
        {
          "internalType": "address",
          "name": "_walletAddress",
          "type": "address"
        },
        {
          "internalType": "string",
          "name": "_hhNumber",
          "type": "string"
        },
        {
          "internalType": "string",
          "name": "_password",
          "type": "string"
        },
        {
          "internalType": "string",
          "name": "_doctorName",
          "type": "string"
        },
        {
          "internalType": "string",
          "name": "_hospitalName",
          "type": "string"
        },
        {
          "internalType": "string",
          "name": "_specialization",
          "type": "string"
        },
        {
          "internalType": "string",
          "name": "_bmdcNumber",
          "type": "string"
        },
        {
          "internalType": "string",
          "name": "_phoneNumber",
          "type": "string"
        }
      ],
      "name": "registerDoctor",
      "outputs": [],
      "stateMutability": "nonpayable",
      "type": "function"
    },
    {
      "inputs": [
        {
          "internalType": "string",
          "name": "_hhNumber",
          "type": "string"
        },
        {
          "internalType": "string",
          "name": "_password",
          "type": "string"
        }
      ],
      "name": "validatePassword",
      "outputs": [
        {
          "internalType": "bool",
          "name": "",
          "type": "bool"
        }
      ],
      "stateMutability": "view",
      "type": "function",
      "constant": true
    },
    {
      "inputs": [
        {
          "internalType": "string",
          "name": "_hhNumber",
          "type": "string"
        }
      ],
      "name": "isRegisteredDoctor",
      "outputs": [
        {
          "internalType": "bool",
          "name": "",
          "type": "bool"
        }
      ],
      "stateMutability": "view",
      "type": "function",
      "constant": true
    },
    {
      "inputs": [
        {
          "internalType": "string",
          "name": "_hhNumber",
          "type": "string"
        }
      ],
      "name": "getDoctorDetails",
      "outputs": [
        {
          "internalType": "address",
          "name": "walletAddress",
          "type": "address"
        },
        {
          "internalType": "string",
          "name": "doctorName",
          "type": "string"
        },
        {
          "internalType": "string",
          "name": "hospitalName",
          "type": "string"
        },
        {
          "internalType": "string",
          "name": "specialization",
          "type": "string"
        },
        {
          "internalType": "string",
          "name": "bmdcNumber",
          "type": "string"
        },
        {
          "internalType": "string",
          "name": "phoneNumber",
          "type": "string"
        }
      ],
      "stateMutability": "view",
      "type": "function",
      "constant": true
    },
    {
      "inputs": [
        {
          "internalType": "string",
          "name": "_patientNumber",
          "type": "string"
        },
        {
          "internalType": "string",
          "name": "_doctorNumber",
          "type": "string"
        },
        {
          "internalType": "string",
          "name": "_patientName",
          "type": "string"
        }
      ],
      "name": "grantPermission",
      "outputs": [],
      "stateMutability": "nonpayable",
      "type": "function"
    },
    {
      "inputs": [
        {
          "internalType": "string",
          "name": "_patientNumber",
          "type": "string"
        },
        {
          "internalType": "string",
          "name": "_doctorNumber",
          "type": "string"
        }
      ],
      "name": "revokePermission",
      "outputs": [],
      "stateMutability": "nonpayable",
      "type": "function"
    },
    {
      "inputs": [
        {
          "internalType": "string",
          "name": "_doctorNumber",
          "type": "string"
        }
      ],
      "name": "getPatientList",
      "outputs": [
        {
          "components": [
            {
              "internalType": "string",
              "name": "patient_number",
              "type": "string"
            },
            {
              "internalType": "string",
              "name": "patient_name",
              "type": "string"
            }
          ],
          "internalType": "struct DoctorRegistration.PatientList[]",
          "name": "",
          "type": "tuple[]"
        }
      ],
      "stateMutability": "view",
      "type": "function",
      "constant": true
    }
  ],
  "bytecode": "0x6080806040523461001657611757908161001c8239f35b600080fdfe6080604052600436101561001257600080fd5b60003560e01c80632dd6c0551461099b5780633e7697671461080f57806344334733146107d55780635df67040146105545780637babdb26146104a457806391c12f7614610344578063a46bef15146102da5763ac5f9fd01461007457600080fd5b346102d5576100823661134a565b90604051918151906100b16020948581818701956100a1818389611302565b8101600381520301902082611390565b805460ff1916905560005b604051825190868401916100d1818385611302565b810190878160029384815203019020548310156102d35761010c83604051898188516100fe81838a611302565b8101868152030190206115b9565b5060405161012f816101218b82018095611492565b03601f19810183528261128b565b5190208560405161015b8a828b61014e83830196879251928391611302565b810103808452018261128b565b5190201461017357505061016e906115eb565b6100bc565b92935093505b6040518581855161018b81838a611302565b8101858152030190205460001981019081116102535781101561026957604051858185516101ba81838a611302565b81018581520301902090600191828201808311610253576101da916115b9565b50610201826040518981806101f38c8c51928391611302565b8101898152030190206115b9565b61023d576102199382820361021e575b5050506115eb565b610179565b808361022d61023595856115fa565b0191016115fa565b388080610211565b634e487b7160e01b600052600060045260246000fd5b634e487b7160e01b600052601160045260246000fd5b50610281939291604051948593849251928391611302565b820190815203019020805480156102bd5760001901906102a182826115b9565b61023d576001816102b46102ba936116d8565b016116d8565b55005b634e487b7160e01b600052603160045260246000fd5b005b600080fd5b346102d55760203660031901126102d5576004356001600160401b0381116102d55761030c60209136906004016112ac565b816103206040519283815193849201611302565b600090820190815281900382019020546040516001600160a01b0390911615158152f35b346102d5576020806003193601126102d5576001600160401b036004358181116102d5576103769036906004016112ac565b908261038b6040519384815193849201611302565b82019183816002948581520301902090815490811161048e5760405193926103b9600583901b85018661128b565b8185528385018093600052846000206000915b84831061044f57604080518881528951818a01819052600092600582901b83018101918a918c9085015b8287106104035785850386f35b90919293828061043f600193603f198a82030186528851908361042f8351604084526040840190611325565b9201519084818403910152611325565b96019201960195929190926103f6565b838760019260409a999a5161046381611270565b61046c86611515565b8152610479858701611515565b838201528152019201920191909695966103cc565b634e487b7160e01b600052604160045260246000fd5b346102d5576104f861052960026104ba3661134a565b604093919351908451906020968793848801936104d8818387611302565b600090820190815281900385019020546001600160a01b0316151561144e565b60405161051484828161014e8183019687815193849201611302565b51902094604051938492839251928391611302565b8101600181520301902001604051610548816101218682018095611492565b51902014604051908152f35b346102d55760603660031901126102d5576001600160401b036004358181116102d5576105859036906004016112ac565b906024358181116102d55761059e9036906004016112ac565b906044358181116102d5576105b79036906004016112ac565b92604051936105c585611270565b818552602092838601918252604051848187516105e58183858c01611302565b810160028152030190209586546801000000000000000081101561048e576106149060019889820181556115b9565b91909161023d575190815183811161048e57889261063c8261063685546113b6565b85611407565b8790601f831160011461076f576000919083610764575b5050600019600383901b1c191690831b1781555b019151805191821161048e576106818261063685546113b6565b8490601f83116001146106f35791806106db979694926106cb96946000926106e8575b5050600019600383901b1c191690881b1790555b8160405193828580945193849201611302565b8101600381520301902090611390565b805460ff19169091179055005b0151905089806106a4565b879291601f1983169185600052876000209260005b81811061074d5750916106cb97959391856106db9b9a98969410610734575b505050811b0190556106b8565b015160001960f88460031b161c19169055898080610727565b8284015185558b9690940193928901928901610708565b015190508a80610653565b90601f1983169184600052896000209260005b8b8282106107bf57505090848795949392106107a6575b505050811b018155610667565b015160001960f88460031b161c191690558a8080610799565b8385015186558e98909501949384019301610782565b346102d557602060ff610803826106cb6107ee3661134a565b92908160405193828580945193849201611302565b54166040519015158152f35b346102d5576020806003193601126102d5576004356001600160401b0381116102d5576108409036906004016112ac565b610997610890836040519380519061087f83820192610860818986611302565b870160008152878560018060a01b03998a93030190205416151561144e565b604051938492839251928391611302565b8101600181520301902091610989604051916108ab83611254565b8085541683526108bd60018601611515565b868401526108cd60028601611515565b604084015261097b6108e160038701611515565b956060850196875261096d6108f860048301611515565b936080870194855261095f61090f60058501611515565b9160a08901928352610936600761092860068801611515565b9660c08c0197885201611515565b988960e0820152511699519551915193519560c06040519c8d9c8d528c015260c08b0190611325565b9089820360408b0152611325565b908782036060890152611325565b908582036080870152611325565b9083820360a0850152611325565b0390f35b346102d5576101003660031901126102d5576004356001600160a01b03811681036102d5576024356001600160401b0381116102d5576109df9036906004016112ac565b906044356001600160401b0381116102d5576109ff9036906004016112ac565b6064356001600160401b0381116102d557610a1e9036906004016112ac565b906084356001600160401b0381116102d557610a3e9036906004016112ac565b60a4356001600160401b0381116102d557610a5d9036906004016112ac565b60c4356001600160401b0381116102d557610a7c9036906004016112ac565b9060e4356001600160401b0381116102d557610a9c9036906004016112ac565b926040518851610ab0818360208d01611302565b60009082019081528190036020019020546001600160a01b031661120f5760405194610adb86611254565b60018060a01b03881686528860208701526040860152856060860152608085015260a084015260c083015260e08201526040516020818651610b208183858b01611302565b600190820190815203019020815181546001600160a01b0319166001600160a01b039190911617815560208201518051906001600160401b03821161048e578190610b7b82610b7260018701546113b6565b60018701611407565b602090601f831160011461119d57600092611192575b50508160011b916000199060031b1c19161760018201555b60408201518051906001600160401b03821161048e578190610bdb82610bd260028701546113b6565b60028701611407565b602090601f831160011461112057600092611115575b50508160011b916000199060031b1c19161760028201555b60608201518051906001600160401b03821161048e578190610c3b82610c3260038701546113b6565b60038701611407565b602090601f83116001146110a357600092611098575b50508160011b916000199060031b1c19161760038201555b60808201518051906001600160401b03821161048e578190610c9b82610c9260048701546113b6565b60048701611407565b602090601f83116001146110265760009261101b575b50508160011b916000199060031b1c19161760048201555b60a08201518051906001600160401b03821161048e578190610cfb82610cf260058701546113b6565b60058701611407565b602090601f8311600114610fa957600092610f9e575b50508160011b916000199060031b1c19161760058201555b60c08201518051906001600160401b03821161048e57610d5982610d5060068601546113b6565b60068601611407565b602090601f8311600114610f2957918060e09492600794600092610f1e575b50508160011b916000199060031b1c19161760068201555b019101518051906001600160401b03821161048e57610db38261063685546113b6565b602090601f8311600114610e8b579282610e6b937f8d3f9c8a09dcd94bc9c847110caac40824996b777a45809b38b82b9aa3f71ec8989693610e5d9896600092610e80575b50508160011b916000199060031b1c19161790555b6040516020818651610e228183858b01611302565b60009082019081520301902080546001600160a01b0319166001600160a01b0385161790556040516060808252909586959091860190611325565b908482036020860152611325565b6001600160a01b0390911660408301520390a1005b015190508980610df8565b90601f198316918460005260206000209260005b818110610f065750937f8d3f9c8a09dcd94bc9c847110caac40824996b777a45809b38b82b9aa3f71ec8989693610e5d98969360019383610e6b9810610eed575b505050811b019055610e0d565b015160001960f88460031b161c19169055898080610ee0565b92936020600181928786015181550195019301610e9f565b015190508980610d78565b906006840160005260206000209160005b601f1985168110610f8657509260e0949260019260079583601f19811610610f6d575b505050811b016006820155610d90565b015160001960f88460031b161c19169055898080610f5d565b91926020600181928685015181550194019201610f3a565b015190508780610d11565b9250600584016000526020600020906000935b601f1984168510611000576001945083601f19811610610fe7575b505050811b016005820155610d29565b015160001960f88460031b161c19169055878080610fd7565b81810151835560209485019460019093019290910190610fbc565b015190508780610cb1565b9250600484016000526020600020906000935b601f198416851061107d576001945083601f19811610611064575b505050811b016004820155610cc9565b015160001960f88460031b161c19169055878080611054565b81810151835560209485019460019093019290910190611039565b015190508780610c51565b9250600384016000526020600020906000935b601f19841685106110fa576001945083601f198116106110e1575b505050811b016003820155610c69565b015160001960f88460031b161c191690558780806110d1565b818101518355602094850194600190930192909101906110b6565b015190508780610bf1565b9250600284016000526020600020906000935b601f1984168510611177576001945083601f1981161061115e575b505050811b016002820155610c09565b015160001960f88460031b161c1916905587808061114e565b81810151835560209485019460019093019290910190611133565b015190508780610b91565b9250600184016000526020600020906000935b601f19841685106111f4576001945083601f198116106111db575b505050811b016001820155610ba9565b015160001960f88460031b161c191690558780806111cb565b818101518355602094850194600190930192909101906111b0565b60405162461bcd60e51b815260206004820152601960248201527f446f63746f7220616c72656164792072656769737465726564000000000000006044820152606490fd5b61010081019081106001600160401b0382111761048e57604052565b604081019081106001600160401b0382111761048e57604052565b90601f801991011681019081106001600160401b0382111761048e57604052565b81601f820112156102d5578035906001600160401b03821161048e57604051926112e0601f8401601f19166020018561128b565b828452602083830101116102d557816000926020809301838601378301015290565b60005b8381106113155750506000910152565b8181015183820152602001611305565b9060209161133e81518092818552858086019101611302565b601f01601f1916010190565b9060406003198301126102d5576001600160401b036004358181116102d55783611376916004016112ac565b926024359182116102d55761138d916004016112ac565b90565b6020906113aa928260405194838680955193849201611302565b82019081520301902090565b90600182811c921680156113e6575b60208310146113d057565b634e487b7160e01b600052602260045260246000fd5b91607f16916113c5565b8181106113fb575050565b600081556001016113f0565b9190601f811161141657505050565b611442926000526020600020906020601f840160051c83019310611444575b601f0160051c01906113f0565b565b9091508190611435565b1561145557565b60405162461bcd60e51b8152602060048201526015602482015274111bd8dd1bdc881b9bdd081c9959da5cdd195c9959605a1b6044820152606490fd5b6000929181546114a1816113b6565b926001918083169081156114fa57506001146114be575b50505050565b90919293945060005260209081600020906000915b8583106114e957505050500190388080806114b8565b8054858401529183019181016114d3565b60ff19168452505050811515909102019150388080806114b8565b9060405191826000825492611529846113b6565b9081845260019485811690816000146115965750600114611553575b50506114429250038361128b565b9093915060005260209081600020936000915b81831061157e57505061144293508201013880611545565b85548884018501529485019487945091830191611566565b91505061144294506020925060ff191682840152151560051b8201013880611545565b80548210156115d55760005260206000209060011b0190600090565b634e487b7160e01b600052603260045260246000fd5b60001981146102535760010190565b908082146116d45761160c81546113b6565b906001600160401b03821161048e5781906116318261162b86546113b6565b86611407565b600090601f83116001146116685760009261165d575b50508160011b916000199060031b1c1916179055565b015490503880611647565b81526020808220858352818320935090601f1985169083905b8282106116bb5750509084600195949392106116a2575b505050811b019055565b015460001960f88460031b161c19169055388080611698565b8495819295850154815560018091019601940190611681565b5050565b6116e281546113b6565b90816116ec575050565b81601f600093116001146116fe575055565b90808391825261171d601f60208420940160051c8401600185016113f0565b555556fea264697066735822122009ba062e08a4696aa6a57ce0a50a88875a21d73087e8fb183418fe073be9519064736f6c63430008130033",
  "immutableReferences": {},
  "source": "// SPDX-License-Identifier: MIT\r\npragma solidity ^0.8.19;\r\n\r\ncontract DoctorRegistration {\r\n    struct Doctor {\r\n        address walletAddress; // Doctor's wallet address\r\n        string hhNumber; // Unique health identifier\r\n        string password; // Doctor's password for verification\r\n        string doctorName; // Full name\r\n        string hospitalName; // Affiliated hospital\r\n        string specialization; // Medical specialization\r\n        string bmdcNumber; // BMDC registration number\r\n        string phoneNumber; // Contact number\r\n    }\r\n\r\n    struct PatientList {\r\n        string patient_number;\r\n        string patient_name;\r\n    }\r\n\r\n    mapping(string => address) private doctorAddresses;\r\n    mapping(string => Doctor) private doctors;\r\n    mapping(string => PatientList[]) private Dpermission;\r\n    mapping(string => mapping(string => bool)) public doctorPermissions;\r\n\r\n    event DoctorRegistered(string hhNumber, string doctorName, address walletAddress);\r\n\r\n    function registerDoctor(\r\n        address _walletAddress,\r\n        string memory _hhNumber,\r\n        string memory _password,\r\n        string memory _doctorName,\r\n        string memory _hospitalName,\r\n        string memory _specialization,\r\n        string memory _bmdcNumber,\r\n        string memory _phoneNumber\r\n    ) external {\r\n        require(doctorAddresses[_hhNumber] == address(0), \"Doctor already registered\");\r\n\r\n        Doctor memory newDoctor = Doctor({\r\n            walletAddress: _walletAddress,\r\n            hhNumber: _hhNumber,\r\n            password: _password,\r\n            doctorName: _doctorName,\r\n            hospitalName: _hospitalName,\r\n            specialization: _specialization,\r\n            bmdcNumber: _bmdcNumber,\r\n            phoneNumber: _phoneNumber\r\n        });\r\n\r\n        doctors[_hhNumber] = newDoctor;\r\n        doctorAddresses[_hhNumber] = _walletAddress;\r\n        emit DoctorRegistered(_hhNumber, _doctorName, _walletAddress);\r\n    }\r\n\r\n    function validatePassword(string memory _hhNumber, string memory _password) external view returns (bool) {\r\n        require(doctorAddresses[_hhNumber] != address(0), \"Doctor not registered\");\r\n        return keccak256(abi.encodePacked(_password)) == keccak256(abi.encodePacked(doctors[_hhNumber].password));\r\n    }\r\n\r\n    function isRegisteredDoctor(string memory _hhNumber) external view returns (bool) {\r\n        return doctorAddresses[_hhNumber] != address(0);\r\n    }\r\n\r\n    function getDoctorDetails(string memory _hhNumber) external view returns (\r\n        address walletAddress,\r\n        string memory doctorName,\r\n        string memory hospitalName,\r\n        string memory specialization,\r\n        string memory bmdcNumber,\r\n        string memory phoneNumber\r\n    ) {\r\n        require(doctorAddresses[_hhNumber] != address(0), \"Doctor not registered\");\r\n        Doctor memory doctor = doctors[_hhNumber];\r\n        return (\r\n            doctor.walletAddress,\r\n            doctor.doctorName,\r\n            doctor.hospitalName,\r\n            doctor.specialization,\r\n            doctor.bmdcNumber,\r\n            doctor.phoneNumber\r\n        );\r\n    }\r\n\r\n    function grantPermission(\r\n        string memory _patientNumber,\r\n        string memory _doctorNumber,\r\n        string memory _patientName\r\n    ) external {\r\n        PatientList memory newRecord = PatientList(\r\n            _patientNumber,\r\n            _patientName\r\n        );\r\n        Dpermission[_doctorNumber].push(newRecord);\r\n        doctorPermissions[_patientNumber][_doctorNumber] = true;\r\n    }\r\n\r\n    function revokePermission(string memory _patientNumber, string memory _doctorNumber) public {\r\n        doctorPermissions[_patientNumber][_doctorNumber] = false;\r\n\r\n        for (uint i = 0; i < Dpermission[_doctorNumber].length; i++) {\r\n            if (keccak256(abi.encodePacked(Dpermission[_doctorNumber][i].patient_number)) == keccak256(abi.encodePacked(_patientNumber))) {\r\n                for (uint j = i; j < Dpermission[_doctorNumber].length - 1; j++) {\r\n                    Dpermission[_doctorNumber][j] = Dpermission[_doctorNumber][j + 1];\r\n                }\r\n                Dpermission[_doctorNumber].pop();\r\n                break;\r\n            }\r\n        }\r\n    }\r\n\r\n    function getPatientList(string memory _doctorNumber) public view returns (PatientList[] memory) {\r\n        return Dpermission[_doctorNumber];\r\n    }\r\n}\r\n",
  "sourcePath": "D:\\Secure-Electronic-Health-Records-SAP\\src\\contracts\\DoctorRegistration.sol",
  "compiler": {
    "name": "solc",
    "version": "0.8.19+commit.7dd6d404.Emscripten.clang"
  },
  "schemaVersion": "3.4.16",
  "updatedAt": "2024-12-04T13:03:50.603Z",
  "networkType": "ethereum",
  "devdoc": {
    "kind": "dev",
    "methods": {},
    "version": 1
  },
  "userdoc": {
    "kind": "user",
    "methods": {},
    "version": 1
  }
}