{
  "contractName": "PatientRegistration",
  "abi": [
    {
      "anonymous": false,
      "inputs": [
        {
          "indexed": false,
          "internalType": "string",
          "name": "hhNumber",
          "type": "string"
        },
        {
          "indexed": false,
          "internalType": "string",
          "name": "name",
          "type": "string"
        },
        {
          "indexed": false,
          "internalType": "address",
          "name": "walletAddress",
          "type": "address"
        }
      ],
      "name": "PatientRegistered",
      "type": "event"
    },
    {
      "anonymous": false,
      "inputs": [
        {
          "indexed": false,
          "internalType": "string",
          "name": "hhNumber",
          "type": "string"
        },
        {
          "indexed": false,
          "internalType": "string",
          "name": "ipfsHash",
          "type": "string"
        },
        {
          "indexed": false,
          "internalType": "string",
          "name": "recordName",
          "type": "string"
        }
      ],
      "name": "RecordUploaded",
      "type": "event"
    },
    {
      "inputs": [
        {
          "internalType": "string",
          "name": "",
          "type": "string"
        },
        {
          "internalType": "string",
          "name": "",
          "type": "string"
        }
      ],
      "name": "doctorPermissions",
      "outputs": [
        {
          "internalType": "bool",
          "name": "",
          "type": "bool"
        }
      ],
      "stateMutability": "view",
      "type": "function",
      "constant": true
    },
    {
      "inputs": [
        {
          "internalType": "string",
          "name": "",
          "type": "string"
        }
      ],
      "name": "isPatientRegistered",
      "outputs": [
        {
          "internalType": "bool",
          "name": "",
          "type": "bool"
        }
      ],
      "stateMutability": "view",
      "type": "function",
      "constant": true
    },
    {
      "inputs": [
        {
          "internalType": "string",
          "name": "",
          "type": "string"
        }
      ],
      "name": "patients",
      "outputs": [
        {
          "internalType": "address",
          "name": "walletAddress",
          "type": "address"
        },
        {
          "internalType": "string",
          "name": "hhNumber",
          "type": "string"
        },
        {
          "internalType": "string",
          "name": "password",
          "type": "string"
        },
        {
          "internalType": "string",
          "name": "name",
          "type": "string"
        },
        {
          "internalType": "string",
          "name": "dateOfBirth",
          "type": "string"
        },
        {
          "internalType": "string",
          "name": "gender",
          "type": "string"
        },
        {
          "internalType": "string",
          "name": "bloodGroup",
          "type": "string"
        },
        {
          "internalType": "string",
          "name": "nidNumber",
          "type": "string"
        },
        {
          "internalType": "string",
          "name": "phoneNumber",
          "type": "string"
        },
        {
          "internalType": "string",
          "name": "residentialAddress",
          "type": "string"
        }
      ],
      "stateMutability": "view",
      "type": "function",
      "constant": true
    },
    {
      "inputs": [
        {
          "internalType": "address",
          "name": "_walletAddress",
          "type": "address"
        },
        {
          "internalType": "string",
          "name": "_hhNumber",
          "type": "string"
        },
        {
          "internalType": "string",
          "name": "_password",
          "type": "string"
        },
        {
          "internalType": "string",
          "name": "_name",
          "type": "string"
        },
        {
          "internalType": "string",
          "name": "_dateOfBirth",
          "type": "string"
        },
        {
          "internalType": "string",
          "name": "_gender",
          "type": "string"
        },
        {
          "internalType": "string",
          "name": "_bloodGroup",
          "type": "string"
        },
        {
          "internalType": "string",
          "name": "_nidNumber",
          "type": "string"
        },
        {
          "internalType": "string",
          "name": "_phoneNumber",
          "type": "string"
        },
        {
          "internalType": "string",
          "name": "_residentialAddress",
          "type": "string"
        }
      ],
      "name": "registerPatient",
      "outputs": [],
      "stateMutability": "nonpayable",
      "type": "function"
    },
    {
      "inputs": [
        {
          "internalType": "string",
          "name": "_hhNumber",
          "type": "string"
        }
      ],
      "name": "isRegisteredPatient",
      "outputs": [
        {
          "internalType": "bool",
          "name": "",
          "type": "bool"
        }
      ],
      "stateMutability": "view",
      "type": "function",
      "constant": true
    },
    {
      "inputs": [
        {
          "internalType": "string",
          "name": "_hhNumber",
          "type": "string"
        },
        {
          "internalType": "string",
          "name": "_password",
          "type": "string"
        }
      ],
      "name": "validatePassword",
      "outputs": [
        {
          "internalType": "bool",
          "name": "",
          "type": "bool"
        }
      ],
      "stateMutability": "view",
      "type": "function",
      "constant": true
    },
    {
      "inputs": [
        {
          "internalType": "string",
          "name": "_hhNumber",
          "type": "string"
        },
        {
          "internalType": "string",
          "name": "_ipfsHash",
          "type": "string"
        },
        {
          "internalType": "string",
          "name": "_recordName",
          "type": "string"
        }
      ],
      "name": "uploadRecord",
      "outputs": [],
      "stateMutability": "nonpayable",
      "type": "function"
    },
    {
      "inputs": [
        {
          "internalType": "string",
          "name": "_hhNumber",
          "type": "string"
        }
      ],
      "name": "getPatientRecords",
      "outputs": [
        {
          "components": [
            {
              "internalType": "string",
              "name": "ipfsHash",
              "type": "string"
            },
            {
              "internalType": "string",
              "name": "recordName",
              "type": "string"
            }
          ],
          "internalType": "struct PatientRegistration.PatientRecord[]",
          "name": "",
          "type": "tuple[]"
        }
      ],
      "stateMutability": "view",
      "type": "function",
      "constant": true
    },
    {
      "inputs": [
        {
          "internalType": "string",
          "name": "_patientNumber",
          "type": "string"
        },
        {
          "internalType": "string",
          "name": "_doctorNumber",
          "type": "string"
        },
        {
          "internalType": "string",
          "name": "_patientName",
          "type": "string"
        }
      ],
      "name": "grantPermission",
      "outputs": [],
      "stateMutability": "nonpayable",
      "type": "function"
    },
    {
      "inputs": [
        {
          "internalType": "string",
          "name": "_patientNumber",
          "type": "string"
        },
        {
          "internalType": "string",
          "name": "_doctorNumber",
          "type": "string"
        }
      ],
      "name": "isPermissionGranted",
      "outputs": [
        {
          "internalType": "bool",
          "name": "",
          "type": "bool"
        }
      ],
      "stateMutability": "view",
      "type": "function",
      "constant": true
    },
    {
      "inputs": [
        {
          "internalType": "string",
          "name": "_doctorNumber",
          "type": "string"
        }
      ],
      "name": "getPatientList",
      "outputs": [
        {
          "components": [
            {
              "internalType": "string",
              "name": "patient_number",
              "type": "string"
            },
            {
              "internalType": "string",
              "name": "patient_name",
              "type": "string"
            }
          ],
          "internalType": "struct PatientRegistration.PatientList[]",
          "name": "",
          "type": "tuple[]"
        }
      ],
      "stateMutability": "view",
      "type": "function",
      "constant": true
    },
    {
      "inputs": [
        {
          "internalType": "string",
          "name": "_hhNumber",
          "type": "string"
        }
      ],
      "name": "getPatientDetails",
      "outputs": [
        {
          "internalType": "address",
          "name": "walletAddress",
          "type": "address"
        },
        {
          "internalType": "string",
          "name": "hhNumber",
          "type": "string"
        },
        {
          "internalType": "string",
          "name": "name",
          "type": "string"
        },
        {
          "internalType": "string",
          "name": "dateOfBirth",
          "type": "string"
        },
        {
          "internalType": "string",
          "name": "gender",
          "type": "string"
        },
        {
          "internalType": "string",
          "name": "bloodGroup",
          "type": "string"
        },
        {
          "internalType": "string",
          "name": "nidNumber",
          "type": "string"
        },
        {
          "internalType": "string",
          "name": "phoneNumber",
          "type": "string"
        },
        {
          "internalType": "string",
          "name": "residentialAddress",
          "type": "string"
        }
      ],
      "stateMutability": "view",
      "type": "function",
      "constant": true
    }
  ],
  "bytecode": "0x6080806040523461001657611e60908161001c8239f35b600080fdfe6080604052600436101561001257600080fd5b60003560e01c80631cd092601461170657806344334733146102f65780634f10c6c2146100a05780635cd40af5146115e55780635df67040146113fd5780637babdb261461133d5780638ed0e205146105af57806391c12f76146104b8578063c6009d8414610340578063d120c10c146102f6578063ea977fc8146101065763f7252641146100a057600080fd5b34610101576020366003190112610101576004356001600160401b0381116101015760ff6100eb60206100d881943690600401611844565b816040519382858094519384920161193b565b8101600081520301902054166040519015158152f35b600080fd5b3461010157602080600319360112610101576004356001600160401b03811161010157610137903690600401611844565b816040519180519282818184019561015081838961193b565b810160008152030190205460ff1661016790611ab3565b6040518093819251809261017a9261193b565b810160018152030190206040519061019182611807565b80546001600160a01b039081168352906101ad60018201611a0d565b848401908152926101c060028301611a0d565b60408201526101d160038301611a0d565b606082019081526101e460048401611a0d565b608083019081526101f760058501611a0d565b60a0840190815261020a60068601611a0d565b60c085019081529061021e60078701611a0d565b60e086019081529261023260088801611a0d565b946101009788880196875260090161024990611a0d565b98610120978a898201525116995190519151925193519451955196806040519c8d9c8d528c01528a0161027b91611984565b89810360408b015261028c91611984565b88810360608a015261029d91611984565b87810360808901526102ae91611984565b86810360a08801526102bf91611984565b85810360c08701526102d091611984565b84810360e08601526102e191611984565b90838203908401526102f291611984565b0390f35b3461010157602060ff6103348261032461030f366118f8565b9290816040519382858094519384920161193b565b810160048152030190209061195e565b54166040519015158152f35b34610101576020366003190112610101576004356001600160401b03811161010157610370903690600401611844565b60405181818093516020819301916103879261193b565b810160018152036020019020600160a01b60019003815416600182016103ac90611a0d565b916103b960028201611a0d565b906103c660038201611a0d565b6103d260048301611a0d565b6103de60058401611a0d565b6103ea60068501611a0d565b916103f760078601611a0d565b9361040460088701611a0d565b9560090161041190611a0d565b96604051998a998a526101408060208c01528a0161042e91611984565b89810360408b015261043f91611984565b88810360608a015261045091611984565b878103608089015261046191611984565b86810360a088015261047291611984565b85810360c087015261048391611984565b84810360e086015261049491611984565b8381036101008501526104a691611984565b8281036101208401526102f291611984565b3461010157602080600319360112610101576004356001600160401b03811161010157816100d86104ed923690600401611844565b810160038152030190209081549161050483611de7565b926105126040519485611823565b8084528284018092600052836000206000915b83831061058c5750505050604051918083019381845251809452604083019360408160051b85010192916000955b8287106105605785850386f35b90919293828061057c600193603f198a820301865288516119a9565b9601920196019592919092610553565b60028660019261059e859a999a611dfe565b815201920192019190959495610525565b3461010157610140366003190112610101576004356001600160a01b0381168103610101576024356001600160401b038111610101576105f3903690600401611844565b906044356001600160401b03811161010157610613903690600401611844565b6064356001600160401b03811161010157610632903690600401611844565b906084356001600160401b03811161010157610652903690600401611844565b60a4356001600160401b03811161010157610671903690600401611844565b60c4356001600160401b03811161010157610690903690600401611844565b60e4356001600160401b038111610101576106af903690600401611844565b90610104356001600160401b038111610101576106d0903690600401611844565b92610124356001600160401b038111610101576106f1903690600401611844565b9460ff61070d60208c816040519382858094519384920161193b565b8101600081520301902054166112f8576040519661072a88611807565b60018060a01b038a1688528a60208901526040880152876060880152608087015260a086015260c085015260e0840152610100830152610120820152604051602081865161077b8183858b0161193b565b600190820190815203019020815181546001600160a01b0319166001600160a01b039190911617815560208201518051919291906001600160401b038211610c6c5781906107cc60018601546119d3565b601f81116112a5575b50602090601f831160011461123357600092611228575b50508160011b916000199060031b1c19161760018301555b60408101518051906001600160401b038211610c6c57819061082960028601546119d3565b601f81116111d5575b50602090601f831160011461116357600092611158575b50508160011b916000199060031b1c19161760028301555b60608101518051906001600160401b038211610c6c57819061088660038601546119d3565b601f8111611105575b50602090601f831160011461109357600092611088575b50508160011b916000199060031b1c19161760038301555b60808101518051906001600160401b038211610c6c5781906108e360048601546119d3565b601f8111611035575b50602090601f8311600114610fc357600092610fb8575b50508160011b916000199060031b1c19161760048301555b60a08101518051906001600160401b038211610c6c57819061094060058601546119d3565b601f8111610f65575b50602090601f8311600114610ef357600092610ee8575b50508160011b916000199060031b1c19161760058301555b60c08101518051906001600160401b038211610c6c57819061099d60068601546119d3565b601f8111610e95575b50602090601f8311600114610e2357600092610e18575b50508160011b916000199060031b1c19161760068301555b60e08101518051906001600160401b038211610c6c5781906109fa60078601546119d3565b601f8111610dc5575b50602090601f8311600114610d5357600092610d48575b50508160011b916000199060031b1c19161760078301555b6101008101518051906001600160401b038211610c6c57610a5660088501546119d3565b601f8111610d01575b50602090601f8311600114610c8d5761012093929160009183610c82575b50508160011b916000199060031b1c19161760088401555b01518051906001600160401b038211610c6c57610ab560098401546119d3565b601f8111610c21575b50602090601f8311600114610b885792600983610b68947f319ae3a95b9a410d647835a7e64d54ddf28faf35a698f0a2b63999585fa38edc999794610b5a9997600092610b7d575b50508160011b916000199060031b1c1916179101555b6040516020818651610b318183858b0161193b565b81016000815203019020600160ff19825416179055604051948594606086526060860190611984565b908482036020860152611984565b6001600160a01b0390911660408301520390a1005b015190508a80610b06565b90601f198316916009850160005260206000209260005b818110610c095750847f319ae3a95b9a410d647835a7e64d54ddf28faf35a698f0a2b63999585fa38edc999794610b5a999794600994610b689860019510610bf0575b505050811b01910155610b1c565b015160001960f88460031b161c191690558a8080610be2565b92936020600181928786015181550195019301610b9f565b600984016000526020600020601f840160051c81019160208510610c62575b601f0160051c01905b818110610c565750610abe565b60008155600101610c49565b9091508190610c40565b634e487b7160e01b600052604160045260246000fd5b015190508880610a7d565b906008850160005260206000209160005b601f1985168110610ce957509183916001936101209695601f19811610610cd0575b505050811b016008840155610a95565b015160001960f88460031b161c19169055888080610cc0565b91926020600181928685015181550194019201610c9e565b600885016000526020600020601f840160051c810160208510610d41575b601f830160051c82018110610d35575050610a5f565b60008155600101610d1f565b5080610d1f565b015190508780610a1a565b9250600785016000526020600020906000935b601f1984168510610daa576001945083601f19811610610d91575b505050811b016007830155610a32565b015160001960f88460031b161c19169055878080610d81565b81810151835560209485019460019093019290910190610d66565b909150600785016000526020600020601f840160051c810160208510610e11575b90849392915b601f830160051c82018110610e02575050610a03565b60008155859450600101610dec565b5080610de6565b0151905087806109bd565b9250600685016000526020600020906000935b601f1984168510610e7a576001945083601f19811610610e61575b505050811b0160068301556109d5565b015160001960f88460031b161c19169055878080610e51565b81810151835560209485019460019093019290910190610e36565b909150600685016000526020600020601f840160051c810160208510610ee1575b90849392915b601f830160051c82018110610ed25750506109a6565b60008155859450600101610ebc565b5080610eb6565b015190508780610960565b9250600585016000526020600020906000935b601f1984168510610f4a576001945083601f19811610610f31575b505050811b016005830155610978565b015160001960f88460031b161c19169055878080610f21565b81810151835560209485019460019093019290910190610f06565b909150600585016000526020600020601f840160051c810160208510610fb1575b90849392915b601f830160051c82018110610fa2575050610949565b60008155859450600101610f8c565b5080610f86565b015190508780610903565b9250600485016000526020600020906000935b601f198416851061101a576001945083601f19811610611001575b505050811b01600483015561091b565b015160001960f88460031b161c19169055878080610ff1565b81810151835560209485019460019093019290910190610fd6565b909150600485016000526020600020601f840160051c810160208510611081575b90849392915b601f830160051c820181106110725750506108ec565b6000815585945060010161105c565b5080611056565b0151905087806108a6565b9250600385016000526020600020906000935b601f19841685106110ea576001945083601f198116106110d1575b505050811b0160038301556108be565b015160001960f88460031b161c191690558780806110c1565b818101518355602094850194600190930192909101906110a6565b909150600385016000526020600020601f840160051c810160208510611151575b90849392915b601f830160051c8201811061114257505061088f565b6000815585945060010161112c565b5080611126565b015190508780610849565b9250600285016000526020600020906000935b601f19841685106111ba576001945083601f198116106111a1575b505050811b016002830155610861565b015160001960f88460031b161c19169055878080611191565b81810151835560209485019460019093019290910190611176565b909150600285016000526020600020601f840160051c810160208510611221575b90849392915b601f830160051c82018110611212575050610832565b600081558594506001016111fc565b50806111f6565b0151905087806107ec565b9250600185016000526020600020906000935b601f198416851061128a576001945083601f19811610611271575b505050811b016001830155610804565b015160001960f88460031b161c19169055878080611261565b81810151835560209485019460019093019290910190611246565b909150600185016000526020600020601f840160051c8101602085106112f1575b90849392915b601f830160051c820181106112e25750506107d5565b600081558594506001016112cc565b50806112c6565b60405162461bcd60e51b815260206004820152601a60248201527f50617469656e7420616c726561647920726567697374657265640000000000006044820152606490fd5b346101015760ff6113c46002611352366118f8565b6040939193519084519061138660209784898096818b019661137581838a61193b565b810160008152030190205416611ab3565b6040516113af8482816113a2818301968781519384920161193b565b8101038084520182611823565b5190209460405193849283925192839161193b565b81016001815203019020016040516113f1816113e38682018095611af8565b03601f198101835282611823565b51902014604051908152f35b346101015761140b3661189a565b6040519280519160ff61143b60209687818187019761142b81838b61193b565b810160048152030190208661195e565b54166115925760006040519085519187818189019461145b81838861193b565b810160038152030190206000908054915b828110611515575b505050156114a4575b60405183516114979187918990829061032481838c61193b565b805460ff19166001179055005b604051959293916114d29184916114ba896117ec565b8689528289015260405180938192895192839161193b565b81016003815203019020928354600160401b811015610c6c57611497966115058261032497600161150b95018155611b7b565b90611bad565b919481935061147d565b61151f8183611b7b565b506113e36115368c60405192839182018095611af8565b519020886040516115558d828c6113a28383019687925192839161193b565b5190201461158457600019811461156e5760010161146c565b634e487b7160e01b600052601160045260246000fd5b505050506001878080611474565b60405162461bcd60e51b815260048101869052602560248201527f41636365737320616c7265616479206772616e74656420746f2074686520646f60448201526463746f722160d81b6064820152608490fd5b3461010157602080600319360112610101576004356001600160401b03811161010157611616903690600401611844565b906040519161163460ff82519484818186019761137581838b61193b565b6116466040519384925192839161193b565b820191818160029485815203019020805461166081611de7565b9361166e6040519586611823565b8185528385018093600052846000206000915b8483106116e457604080518881528951818a01819052600092600582901b83018101918a918c9085015b8287106116b85785850386f35b9091929382806116d4600193603f198a820301865288516119a9565b96019201960195929190926116ab565b83876001926116f5859b9a9b611dfe565b815201920192019190969596611681565b34610101576117143661189a565b9091611748602060405161173760ff85519284818189019561137581838961193b565b60405180938192865192839161193b565b810160028152030190209160405190611760826117ec565b848252806020830152835493600160401b851015610c6c577f6a11701945925c70f231dd1d98e32c6cb1bffc6906bf35a798be3c0cafce83c7956117b76117e794611505886117d99560016117cb9b018155611b7b565b604051958695606087526060870190611984565b908582036020870152611984565b908382036040850152611984565b0390a1005b604081019081106001600160401b03821117610c6c57604052565b61014081019081106001600160401b03821117610c6c57604052565b90601f801991011681019081106001600160401b03821117610c6c57604052565b81601f82011215610101578035906001600160401b038211610c6c5760405192611878601f8401601f191660200185611823565b8284526020838301011161010157816000926020809301838601378301015290565b6060600319820112610101576001600160401b039160043583811161010157826118c691600401611844565b9260243581811161010157836118de91600401611844565b92604435918211610101576118f591600401611844565b90565b906040600319830112610101576001600160401b03600435818111610101578361192491600401611844565b92602435918211610101576118f591600401611844565b60005b83811061194e5750506000910152565b818101518382015260200161193e565b60209061197892826040519483868095519384920161193b565b82019081520301902090565b9060209161199d8151809281855285808601910161193b565b601f01601f1916010190565b6118f59160206119c28351604084526040840190611984565b920151906020818403910152611984565b90600182811c92168015611a03575b60208310146119ed57565b634e487b7160e01b600052602260045260246000fd5b91607f16916119e2565b9060405191826000825492611a21846119d3565b908184526001948581169081600014611a905750600114611a4d575b5050611a4b92500383611823565b565b9093915060005260209081600020936000915b818310611a78575050611a4b93508201013880611a3d565b85548884018501529485019487945091830191611a60565b915050611a4b94506020925060ff191682840152151560051b8201013880611a3d565b15611aba57565b60405162461bcd60e51b815260206004820152601660248201527514185d1a595b9d081b9bdd081c9959da5cdd195c995960521b6044820152606490fd5b600092918154611b07816119d3565b92600191808316908115611b605750600114611b24575b50505050565b90919293945060005260209081600020906000915b858310611b4f5750505050019038808080611b1e565b805485840152918301918101611b39565b60ff1916845250505081151590910201915038808080611b1e565b8054821015611b975760005260206000209060011b0190600090565b634e487b7160e01b600052603260045260246000fd5b90611dd15781518051906001600160401b0391828111610c6c5780611bd285546119d3565b92601f93848111611d7f575b50602090848311600114611d1a57600092611d0f575b50508160011b916000199060031b1c19161783555b602060018094019401518051928311610c6c57611c2685546119d3565b828111611cc7575b506020918311600114611c6757928293918392600094611c5c575b50501b916000199060031b1c1916179055565b015192503880611c49565b90601f198316918560005283826000209360005b87828210611cae57505010611c95575b505050811b019055565b015160001960f88460031b161c19169055388080611c8b565b8486015187559095019460209485019487935001611c7b565b8560005260206000208380860160051c82019260208710611d06575b0160051c019085905b828110611cfa575050611c2e565b60008155018590611cec565b92508192611ce3565b015190503880611bf4565b60008781528281209350601f198516905b818110611d675750908460019594939210611d4e575b505050811b018355611c09565b015160001960f88460031b161c19169055388080611d41565b92936020600181928786015181550195019301611d2b565b9091506000868152602081208580860160051c82019360208710611dc8575b908695949392910160051c01915b828110611dba575050611bde565b818155859450600101611dac565b93508193611d9e565b634e487b7160e01b600052600060045260246000fd5b6001600160401b038111610c6c5760051b60200190565b90604051611e0b816117ec565b6020611e2560018395611e1d81611a0d565b855201611a0d565b91015256fea264697066735822122062a02687025e12478d6fdc9dbb3b1f93705aa09fd8c96e58232c9a278c83471a64736f6c63430008130033",
  "immutableReferences": {},
  "source": "// SPDX-License-Identifier: MIT\r\npragma solidity ^0.8.19;\r\n\r\ncontract PatientRegistration {\r\n    struct Patient {\r\n        address walletAddress;\r\n        string hhNumber;\r\n        string password;\r\n        string name;\r\n        string dateOfBirth;\r\n        string gender;\r\n        string bloodGroup;\r\n        string nidNumber;\r\n        string phoneNumber;\r\n        string residentialAddress;\r\n    }\r\n\r\n    struct PatientRecord {\r\n        string ipfsHash;\r\n        string recordName;\r\n    }\r\n\r\n    struct PatientList {\r\n        string patient_number;\r\n        string patient_name;\r\n    }\r\n\r\n    mapping(string => bool) public isPatientRegistered;\r\n    mapping(string => Patient) public patients;\r\n    mapping(string => PatientRecord[]) private patientRecords;\r\n    mapping(string => PatientList[]) private Dpermission;\r\n    mapping(string => mapping(string => bool)) public doctorPermissions;\r\n\r\n    event PatientRegistered(string hhNumber, string name, address walletAddress);\r\n    event RecordUploaded(string hhNumber, string ipfsHash, string recordName);\r\n\r\n    function registerPatient(\r\n        address _walletAddress,\r\n        string memory _hhNumber,\r\n        string memory _password,\r\n        string memory _name,\r\n        string memory _dateOfBirth,\r\n        string memory _gender,\r\n        string memory _bloodGroup,\r\n        string memory _nidNumber,\r\n        string memory _phoneNumber,\r\n        string memory _residentialAddress\r\n    ) external {\r\n        require(!isPatientRegistered[_hhNumber], \"Patient already registered\");\r\n\r\n        Patient memory newPatient = Patient({\r\n            walletAddress: _walletAddress,\r\n            hhNumber: _hhNumber,\r\n            password: _password,\r\n            name: _name,\r\n            dateOfBirth: _dateOfBirth,\r\n            gender: _gender,\r\n            bloodGroup: _bloodGroup,\r\n            nidNumber: _nidNumber,\r\n            phoneNumber: _phoneNumber,\r\n            residentialAddress: _residentialAddress\r\n        });\r\n\r\n        patients[_hhNumber] = newPatient;\r\n        isPatientRegistered[_hhNumber] = true;\r\n        emit PatientRegistered(_hhNumber, _name, _walletAddress);\r\n    }\r\n\r\n    function isRegisteredPatient(string memory _hhNumber) external view returns (bool) {\r\n        return isPatientRegistered[_hhNumber];\r\n    }\r\n\r\n    function validatePassword(string memory _hhNumber, string memory _password) external view returns (bool) {\r\n        require(isPatientRegistered[_hhNumber], \"Patient not registered\");\r\n        return keccak256(abi.encodePacked(_password)) == keccak256(abi.encodePacked(patients[_hhNumber].password));\r\n    }\r\n\r\n    function uploadRecord(\r\n        string memory _hhNumber,\r\n        string memory _ipfsHash,\r\n        string memory _recordName\r\n    ) external {\r\n        require(isPatientRegistered[_hhNumber], \"Patient not registered\");\r\n        patientRecords[_hhNumber].push(PatientRecord(_ipfsHash, _recordName));\r\n        emit RecordUploaded(_hhNumber, _ipfsHash, _recordName);\r\n    }\r\n\r\n    function getPatientRecords(string memory _hhNumber) external view returns (PatientRecord[] memory) {\r\n        require(isPatientRegistered[_hhNumber], \"Patient not registered\");\r\n        return patientRecords[_hhNumber];\r\n    }\r\n\r\n    function grantPermission(\r\n        string memory _patientNumber,\r\n        string memory _doctorNumber,\r\n        string memory _patientName\r\n    ) external {\r\n        require(!doctorPermissions[_patientNumber][_doctorNumber], \"Access already granted to the doctor!\");\r\n\r\n        bool exists = false;\r\n        PatientList[] storage permissionList = Dpermission[_doctorNumber];\r\n        for (uint256 i = 0; i < permissionList.length; i++) {\r\n            if (\r\n                keccak256(abi.encodePacked(permissionList[i].patient_number)) ==\r\n                keccak256(abi.encodePacked(_patientNumber))\r\n            ) {\r\n                exists = true;\r\n                break;\r\n            }\r\n        }\r\n\r\n        if (!exists) {\r\n            PatientList memory newRecord = PatientList(_patientNumber, _patientName);\r\n            Dpermission[_doctorNumber].push(newRecord);\r\n        }\r\n        doctorPermissions[_patientNumber][_doctorNumber] = true;\r\n    }\r\n\r\n    function isPermissionGranted(string memory _patientNumber, string memory _doctorNumber) external view returns (bool) {\r\n        return doctorPermissions[_patientNumber][_doctorNumber];\r\n    }\r\n\r\n    function getPatientList(string memory _doctorNumber) public view returns (PatientList[] memory) {\r\n        return Dpermission[_doctorNumber];\r\n    }\r\n\r\n    function getPatientDetails(string memory _hhNumber)\r\n        external\r\n        view\r\n        returns (\r\n            address walletAddress,\r\n            string memory hhNumber,\r\n            string memory name,\r\n            string memory dateOfBirth,\r\n            string memory gender,\r\n            string memory bloodGroup,\r\n            string memory nidNumber,\r\n            string memory phoneNumber,\r\n            string memory residentialAddress\r\n        )\r\n    {\r\n        require(isPatientRegistered[_hhNumber], \"Patient not registered\");\r\n\r\n        Patient memory patient = patients[_hhNumber];\r\n        return (\r\n            patient.walletAddress,\r\n            patient.hhNumber,\r\n            patient.name,\r\n            patient.dateOfBirth,\r\n            patient.gender,\r\n            patient.bloodGroup,\r\n            patient.nidNumber,\r\n            patient.phoneNumber,\r\n            patient.residentialAddress\r\n        );\r\n    }\r\n}\r\n",
  "sourcePath": "D:\\Secure-Electronic-Health-Records-SAP\\src\\contracts\\PatientRegistration.sol",
  "compiler": {
    "name": "solc",
    "version": "0.8.19+commit.7dd6d404.Emscripten.clang"
  },
  "schemaVersion": "3.4.16",
  "updatedAt": "2024-12-04T13:03:50.812Z",
  "networkType": "ethereum",
  "devdoc": {
    "kind": "dev",
    "methods": {},
    "version": 1
  },
  "userdoc": {
    "kind": "user",
    "methods": {},
    "version": 1
  }
}